:020000040800F2
:1000000000C00020D1500008FD10000801110008B8
:10001000111100081311000815110008000000005C
:10002000000000000000000000000000B1370008E0
:10003000171100080000000051380008953800082A
:1000400019510008195100081951000819510008E8
:1000500019510008195100081951000819510008D8
:1000600019510008195100081951000819510008C8
:1000700019510008195100081951000819510008B8
:1000800019510008195100081951000819510008A8
:100090001951000819510008195100081951000898
:1000A0001951000819510008195100081951000888
:1000B0001951000819510008195100081951000878
:1000C0001951000819510008195100081951000868
:1000D0001951000819510008195100081911000898
:1000E0001951000819510008195100081951000848
:1000F0001951000819510008195100081951000838
:100100001951000819510008195100081951000827
:10011000195100081951000831110008195100083F
:100120001951000819510008195100081951000807
:1001300000000000000000000000000000000000BF
:1001400000000000000000000000000000000000AF
:10015000000000000000000000000000000000009F
:10016000000000000000000000000000000000008F
:10017000000000000000000000000000000000007F
:10018000000000000000000000000000000000006F
:10019000000000000000000000000000000000005F
:1001A000000000000000000000000000000000004F
:1001B000000000000000000000000000000000003F
:1001C000000000000000000000000000000000002F
:1001D000000000000000000000000000000000001F
:0401E0005FF8E0F1F3
:1001F000844641EA000313F0030349D1403A23D374
:100200000B6803604B6843608B688360CB68C36096
:100210000B6903614B6943618B698361CB69C3617E
:100220000B6A03624B6A43628B6A8362CB6AC36266
:100230000B6B03634B6B43638B6B8363CB6BC3634E
:1002400040304031403ADBD230320BD30B68036090
:100250004B6843608B688360CB68C360103010319B
:10026000103AF3D20C3205D351F8043B40F8043B6A
:10027000043AF9D2043208D0D2071CBF11F8013B6E
:1002800000F8013B01D30B8803806046704700BF34
:10029000082A13D38B07B1D010F00303AED0C3F1FB
:1002A0000403D21ADB071CBF11F8013B00F8013B25
:1002B000A4D331F8023B20F8023B9FE7043AD9D39C
:1002C000013A11F8013B00F8013BF9D20B780370B9
:1002D0004B7843708B7883706046704781F00041A3
:1002E00002E000BF83F0004330B54FEA41044FEA1B
:1002F000430594EA050F08BF90EA020F1FBF54EAB6
:10030000000C55EA020C7FEA645C7FEA655C00F051
:10031000E2804FEA5454D4EB5555B8BF6D420CDD22
:100320002C4480EA020281EA030382EA000083EAA5
:10033000010180EA020281EA0303362D88BF30BD45
:1003400011F0004F4FEA01314FF4801C4CEA11319B
:1003500002D0404261EB410113F0004F4FEA0333FA
:100360004CEA133302D0524263EB430394EA050F85
:1003700000F0A780A4F10104D5F1200E0DDB02FAF4
:100380000EFC22FA05F2801841F1000103FA0EF288
:10039000801843FA05F359410EE0A5F120050EF14E
:1003A000200E012A03FA0EFC28BF4CF0020C43FA7F
:1003B00005F3C01851EBE37101F0004507D54FF08C
:1003C000000EDCF1000C7EEB00006EEB0101B1F5DC
:1003D000801F1BD3B1F5001F0CD349085FEA300022
:1003E0004FEA3C0C04F101044FEA445212F5800F2D
:1003F00080F09A80BCF1004F08BF5FEA500C50F1CA
:10040000000041EB045141EA050130BD5FEA4C0CAC
:10041000404141EB0101013C28BFB1F5801FE9D209
:1004200091F0000F04BF01460020B1FA81F308BF2C
:100430002033A3F10B03B3F120020CDA0C3208DDF8
:1004400002F1140CC2F10C0201FA0CF021FA02F1D3
:100450000CE002F11402D8BFC2F1200C01FA02F143
:1004600020FA0CFCDCBF41EA0C019040E41AA2BF68
:1004700001EB0451294330BD6FEA04041F3C1CDA30
:100480000C340EDC04F11404C4F1200220FA04F050
:1004900001FA02F340EA030021FA04F345EA0301FA
:1004A00030BDC4F10C04C4F1200220FA02F001FABC
:1004B00004F340EA0300294630BD21FA04F029463E
:1004C00030BD94F0000F83F4801306BF81F48011D7
:1004D0000134013D4EE77FEA645C18BF7FEA655C4A
:1004E00029D094EA050F08BF90EA020F05D054EA1C
:1004F000000C04BF1946104630BD91EA030F1EBF21
:100500000021002030BD5FEA545C05D14000494124
:1005100028BF41F0004130BD14F580043CBF01F517
:10052000801130BD01F0004545F0FE4141F47001FD
:100530004FF0000030BD7FEA645C1ABF19461046D8
:100540007FEA655C1CBF0B46024650EA013406BFD9
:1005500052EA033591EA030F41F4002130BD00BF98
:1005600090F0000F04BF0021704730B54FF4806455
:1005700004F132044FF000054FF0000150E700BFD6
:1005800090F0000F04BF0021704730B54FF4806435
:1005900004F1320410F0004548BF40424FF0000122
:1005A0003EE700BF42004FEAE2014FEA31014FEA65
:1005B00002701FBF12F07F4393F07F4F81F06051B4
:1005C000704732F07F4208BF704793F07F4F04BFFF
:1005D00041F40021704730B54FF4607401F00045DC
:1005E00021F000411CE700BF50EA010208BF70473C
:1005F00030B54FF000050AE050EA010208BF70472D
:1006000030B511F0004502D5404261EB41014FF495
:10061000806404F132045FEA915C3FF4D8AE4FF09D
:1006200003025FEADC0C18BF03325FEADC0C18BF80
:10063000033202EBDC02C2F1200300FA03FC20FAD1
:1006400002F001FA03FE40EA0E0021FA02F114441E
:10065000BDE600BF70B54FF0FF0C4CF4E06C1CEA37
:1006600011541DBF1CEA135594EA0C0F95EA0C0FA8
:1006700000F0DEF82C4481EA030621EA4C5123EA1B
:100680004C5350EA013518BF52EA033541F480114A
:1006900043F4801338D0A0FB02CE4FF00005E1FBFD
:1006A00002E506F00042E0FB03E54FF00006E1FB47
:1006B00003569CF0000F18BF4EF0010EA4F1FF048A
:1006C000B6F5007F64F5407404D25FEA4E0E6D41CA
:1006D00046EB060642EAC62141EA55514FEAC520DB
:1006E00040EA5E504FEACE2EB4F1FD0C88BFBCF557
:1006F000E06F1ED8BEF1004F08BF5FEA500E50F108
:10070000000041EB045170BD06F0004646EA0101CD
:1007100040EA020081EA0301B4EB5C04C2BFD4EBFF
:100720000C0541EA045170BD41F480114FF0000EF8
:10073000013C00F3AB8014F1360FDEBF002001F066
:10074000004170BDC4F10004203C35DA0C341BDCE0
:1007500004F11404C4F1200500FA05F320FA04F0B2
:1007600001FA05F240EA020001F0004221F00041E6
:1007700010EBD37021FA04F642EB06015EEA430E59
:1007800008BF20EAD37070BDC4F10C04C4F1200589
:1007900000FA04F320FA05F001FA04F240EA02003C
:1007A00001F0004110EBD37041F100015EEA430E0D
:1007B00008BF20EAD37070BDC4F1200500FA05F22D
:1007C0004EEA020E20FA04F301FA05F243EA0203AC
:1007D00021FA04F001F0004121FA04F220EA0200BB
:1007E00000EBD3705EEA430E08BF20EAD37070BD01
:1007F00094F0000F0FD101F00046400041EB0101E1
:1008000011F4801F08BF013CF7D041EA060195F0C2
:10081000000F18BF704703F00046520043EB03037C
:1008200013F4801F08BF013DF7D043EA0603704769
:1008300094EA0C0F0CEA135518BF95EA0C0F0CD074
:1008400050EA410618BF52EA4306D1D181EA0301BA
:1008500001F000414FF0000070BD50EA410606BFB4
:100860001046194652EA430619D094EA0C0F02D1F9
:1008700050EA013613D195EA0C0F05D152EA03363E
:100880001CBF104619460AD181EA030101F000415C
:1008900041F0FE4141F470014FF0000070BD41F0A5
:1008A000FE4141F4780170BD70B54FF0FF0C4CF47F
:1008B000E06C1CEA11541DBF1CEA135594EA0C0F9E
:1008C00095EA0C0F00F0A7F8A4EB050481EA030EEB
:1008D00052EA03354FEA013100F088804FEA0333D2
:1008E0004FF0805545EA131343EA12634FEA0222A0
:1008F00045EA111545EA10654FEA00260EF0004161
:100900009D4208BF964244F1FD0404F5407402D2B2
:100910005B084FEA3202B61A65EB03055B084FEA43
:1009200032024FF480104FF4002CB6EB020E75EB40
:10093000030E22BFB61A754640EA0C005B084FEA68
:100940003202B6EB020E75EB030E22BFB61A7546E5
:1009500040EA5C005B084FEA3202B6EB020E75EB30
:10096000030E22BFB61A754640EA9C005B084FEAA8
:100970003202B6EB020E75EB030E22BFB61A7546B5
:1009800040EADC0055EA060E18D04FEA051545EAA4
:1009900016754FEA06164FEAC30343EA52734FEA4D
:1009A000C2025FEA1C1CC0D111F4801F0BD141EAC6
:1009B00000014FF000004FF0004CB6E711F4801F2B
:1009C00004BF01430020B4F1FD0C88BFBCF5E06F0B
:1009D0003FF6AFAEB5EB030C04BFB6EB020C5FEA1B
:1009E000500C50F1000041EB045170BD0EF0004E70
:1009F0004EEA113114EB5C04C2BFD4EB0C0541EAA2
:100A0000045170BD41F480114FF0000E013C90E69E
:100A100045EA060E8DE60CEA135594EA0C0F08BF62
:100A200095EA0C0F3FF43BAF94EA0C0F0AD150EA61
:100A300001347FF434AF95EA0C0F7FF425AF1046F4
:100A400019462CE795EA0C0F06D152EA03353FF41C
:100A5000FDAE1046194622E750EA410618BF52EA99
:100A600043067FF4C5AE50EA41047FF40DAF52EA6D
:100A700043057FF4EBAE12E74FF0FF3C06E000BF0A
:100A80004FF0010C02E000BF4FF0010C4DF804CD17
:100A90004FEA410C7FEA6C5C4FEA430C18BF7FEAD7
:100AA0006C5C1BD001B050EA410C0CBF52EA430C05
:100AB00091EA030F02BF90EA020F0020704710F185
:100AC000000F91EA030F58BF994208BF90422CBF14
:100AD000D8176FEAE37040F0010070474FEA410C0D
:100AE0007FEA6C5C02D150EA013C07D14FEA430C2B
:100AF0007FEA6C5CD6D152EA033CD3D05DF8040B9C
:100B0000704700BF8446104662468C4619466346CD
:100B100000E000BF01B5FFF7B7FF002848BF10F1A4
:100B2000000F01BD4DF808EDFFF7F4FF0CBF0120E9
:100B300000205DF808FB00BF4DF808EDFFF7EAFF65
:100B400034BF012000205DF808FB00BF4DF808ED20
:100B5000FFF7E0FF94BF012000205DF808FB00BF15
:100B60004DF808EDFFF7CEFF94BF012000205DF89F
:100B700008FB00BF4DF808EDFFF7C4FF34BF0120AC
:100B800000205DF808FB00BF4FEA410C7FEA6C5C77
:100B900002D150EA013C0AD14FEA430C7FEA6C5C77
:100BA00002D152EA033C02D14FF0000070474FF0EF
:100BB000010070474FEA410212F5001215D211D51B
:100BC0006FF47873B3EB625212D94FEAC12343F04A
:100BD000004343EA505311F0004F23FA02F018BFCC
:100BE000404270474FF00000704750EA013005D195
:100BF00011F0004008BF6FF0004070474FF0000058
:100C0000704700BF0348044B834202D0034B03B13B
:100C100018477047BC090020BC09002000000000F4
:100C20000548064B1B1AD90F01EBA301491002D04E
:100C3000034B03B118477047BC090020BC090020D2
:100C40000000000010B5064C237843B9FFF7DAFF27
:100C5000044B13B10448AFF300800123237010BD8F
:100C6000BC090020000000005CB2000808B5054B7C
:100C70001BB105490548AFF30080BDE80840FFF708
:100C8000CFBF00BF00000000C00900205CB2000818
:100C900008B5094B14229A804FF6EC72A3F8B820DD
:100CA000054BB3F90420B3F90010044804F0B2FA7C
:100CB0000A2002F0B7FCF3E7E009002078B2000850
:100CC00008B50221034800F0A5FD0A2002F0AAFCA5
:100CD000F7E700BFE009002000B583B001904FF6B0
:100CE000FF73012201A9034802F0B5F9019803B08E
:100CF0005DF804FBC40C00202DE9F04FA7B0384B81
:100D000000241C705C709C70364D374E4FF0200AEA
:100D1000CDF894A0354B24934FF0100BCDF88CB048
:100D2000229304232193DFF8C8800FAF4FF04809C6
:100D30004A4641463846FFF75BFAEC4605F10C0E91
:100D4000BEE80F00ACE80F00BEE80F00ACE80F00F3
:100D5000BEE80F00ACE80F009EE807008CE8070033
:100D600095E80E00304600F00BFD224DCDF894B012
:100D7000214B2493CDF88CA0229321944A464146DE
:100D80003846FFF735FA6F4605F10C0CBCE80F004A
:100D90000FC7BCE80F000FC7BCE80F000FC79CE8E7
:100DA000070087E8070095E80E0006F1B40000F0A0
:100DB000E7FC00F0BDFB0221304600F013FD0F4AB6
:100DC00021460F4802F0B8FB0E4B18600E4A214630
:100DD0000E4802F0B1FB0E4B186027B0BDE8F08F53
:100DE000D8090020EC0B0020E00900200010014091
:100DF000340C00207C0C00200008014098B2000850
:100E0000910C0008DC090020BCB20008C10C0008ED
:100E1000480B00202DE9F04389B000240494059488
:100E200006940794254B9A6942F020029A619A69C8
:100E300002F020020092009A9A6942F004029A613C
:100E40009A6902F004020192019A9A6942F0100232
:100E50009A619A6902F010020292029A9A6942F02B
:100E600008029A619B6903F008030393039BDFF870
:100E7000509022463021484600F05AFF114D22463C
:100E80003021284600F054FF4FF03008CDF8108094
:100E90000127059706940226079604A9484600F004
:100EA00027FECDF8108005970694079604A92846DA
:100EB00000F01EFE09B0BDE8F08300BF0010024044
:100EC000000801400010014008B50B480B4B0360BF
:100ED0000B4B436000238360C3604FF48042026188
:100EE00043618361C361036200F028FF00B908BD5C
:100EF00000F050F8FBE700BF4C0B0020005400400E
:100F0000A086010010B586B00023029303930493DA
:100F100005930268154B9A4201D006B010BD144CDF
:100F2000A36943F00803A361A36903F008030093D6
:100F3000009B4FF440730293122303930323059302
:100F400002A90C4800F0D4FD0B4A536843F0E0635B
:100F500043F002035360E36943F40013E361E36980
:100F600003F400130193019BD7E700BF0054004036
:100F700000100240000C01400000014008B502686A
:100F8000034B9A4200D008BD00F072FCFBE700BFA3
:100F90000010004072B6FEE700B591B02822002193
:100FA00006A804F0E5F80023019302930393049349
:100FB0000593012206924FF4803307930A9202228E
:100FC0000D920E934FF4E0130F9306A800F0AAFFC2
:100FD00080B90F23019302210291002303934FF460
:100FE00080620492059301A801F0DCF920B911B0E8
:100FF0005DF804FBFFF7CEFFFFF7CCFF08B500F06C
:1010000025FCFFF7C9FFFFF705FF00F033FA00F0FA
:10101000F1F800F0E5F900F021F9FFF755FF02F0D3
:1010200043FAFFF769FE02F061FAFEE700B583B00C
:10103000114B9A6942F001029A619A6902F0010229
:101040000092009ADA6942F08052DA61DB6903F0BB
:1010500080530193019B00220F216FF0010000F0EB
:101060002BFC064A536823F0E06343F0007353609F
:1010700003B05DF804FB00BF001002400000014017
:1010800000B589B001460022362000F015FC36205C
:1010900000F04AFC154BDA6942F01002DA61DB69B4
:1010A00003F010030193019B02A903A801F056FA73
:1010B00001F034FA43000E4AA2FB03239B0C013BD0
:1010C0000C480D4A026040F2E732C26043600023E0
:1010D0000361836001F044FC18B1012009B05DF8A0
:1010E00004FB044801F0F2FAF8E700BF00100240E8
:1010F00083DE1B43A00B002000100040FEE7000031
:1011000008B50A21014800F023FAFAE7E0B2000826
:10111000FEE7FEE7FEE7704710B5044C204602F0FC
:1011200089F8204600F05AFA10BD00BFC40C002018
:1011300008B5024801F00AFB08BD00BFA00B002063
:101140000120704708B503F0E9FF162303604FF054
:10115000FF3008BD08B54FF0FF31FFF7F3FFFEE7A2
:1011600070B50C461646002506E0AFF30080214618
:1011700001F8010B01350C46B542F6DB304670BD77
:1011800070B50C461646002504E014F8010BFFF775
:10119000A3FD0135B542F8DB304670BD08B5034606
:1011A0000B4A126842B10A4A106803446A469342E5
:1011B00006D8074A136008BD054A06491160F2E7E0
:1011C00003F0ACFF0C2303604FF0FF30F3E700BFE8
:1011D000E80B0020A82600204FF0FF3070474FF4A6
:1011E00000534B600020704701207047002070477B
:1011F0007047000000B58DB02422002103A803F041
:10120000B7FF00230193029313484FF0804202601E
:10121000436083604FF6FF72C26003618361032302
:101220000393012205920A23079309920B9303A9C2
:1012300001F0EEFB50B900230193029301A9064887
:1012400001F0D2FD28B90DB05DF804FBFFF7A2FE56
:10125000F1E7FFF79FFEF6E7EC0B002000B58DB03D
:101260002422002103A803F083FF002301930293AB
:101270001348144A0260436083604FF6FF72C260F5
:101280000361836103230393012205920A230793D9
:1012900009920B9303A901F0BBFB50B90023019302
:1012A000029301A9064801F09FFD28B90DB05DF831
:1012B00004FBFFF76FFEF1E7FFF76CFEF6E700BFF8
:1012C0007C0C00200008004000B589B00023049386
:1012D0000593069307930368B3F1804F05D01D4A29
:1012E00093421DD009B05DF804FB03F50433DA69BD
:1012F00042F00102DA61DA6902F001020092009A1A
:101300009A6942F004029A619B6903F00403019315
:10131000019B0323049304A90F4800F0E9FBE1E7D4
:101320000E4BDA6942F00402DA61DA6902F0040273
:101330000292029A9A6942F008029A619B6903F04C
:1013400008030393039BC023049304A9044800F0FB
:10135000CFFBC7E700080040000801400010024032
:10136000000C01400268094B9A4200D0704782B0DD
:1013700003F50333DA6942F00202DA61DB6903F054
:1013800002030193019B02B0704700BF00040040BC
:1013900000B587B00023029303930493059302687A
:1013A0000D4B9A4202D007B05DF804FB03F50333FE
:1013B0009A6942F004029A619B6903F00403019365
:1013C000019BC023029302230393059302A90348C0
:1013D00000F08EFBE7E700BF00040040000801407A
:1013E00000B58BB0002308930993019302930393F4
:1013F00004930593069307931C481D4A02604360BB
:10140000836041F61F42C2600361836101F0D4FA38
:10141000F8B900230893099308A9144801F0E4FCE3
:10142000D0B960230193002202920392059201A990
:101430000E4801F081FB90B904220DEB02010B482C
:1014400001F07AFB70B90948FFF7A2FF0BB05DF815
:1014500004FBFFF79FFDDCE7FFF79CFDE1E7FFF7EB
:1014600099FDE9E7FFF796FDEDE700BF340C00209A
:101470000004004008B50A480A4B03604FF4E1330A
:10148000436000238360C36003610C224261836177
:10149000C36101F0B1FD00B908BDFFF77BFDFBE7BB
:1014A000C40C00200048004030B587B000230293F0
:1014B00003930493059302681B4B9A4201D007B033
:1014C00030BD03F5E433DA6942F48022DA61DA6987
:1014D00002F480220092009A9A6942F008029A610E
:1014E0009B6903F008030193019B4FF4806302930F
:1014F00002230393032305930C4D02A9284600F011
:10150000F7FA4FF40063029300240394049402A9B1
:10151000284600F0EDFA22460521272000F0CCF9FC
:10152000272000F001FACAE700480040000C014003
:1015300008B505480268D36843F01003D360012260
:10154000024901F094FF08BDC40C00201D0D0020CD
:1015500008B50A464FF6FF730146024801F07BFDCD
:1015600008BD00BFC40C002008B50268094B9A42B0
:1015700000D008BD084A1378D8B20133DBB213702B
:1015800006490A78064B1A540122064801F06FFFFB
:10159000EFE700BF004C00401C0D00201D0D002097
:1015A000080D0020C40C00200A4B1B785B2B00D0D8
:1015B0007047084B1B795D2BFAD1064A5178643984
:1015C000054B1970917864395970D278643A9A70E1
:1015D000EEE700BF080D0020D80900200268114B7B
:1015E0009A4200D0704730B583B004460E4B1B685A
:1015F0001B6813F0100F01D103B030BDFFF7D4FF0B
:101600000A4D2A784FF6FF730949074801F023FD78
:1016100000232B70019323681A6801925B68019381
:10162000019BE9E7004C0040C40C00201C0D002089
:10163000080D002003695A6A028000225A6270472E
:1016400010B5B0F90440A2B20388D21A93B212B214
:101650008281B0F908C0B0F90E10511AB0F80AE052
:101660000EFB03F39BB20CFB01339BB2C1880B440E
:10167000C380C2811CB90023C3808381C38110BD94
:10168000B0F906308B4200DDC180B0F906204B4234
:101690009A4200DAC380704710B50446B0F90630AC
:1016A000002B20DDB0F8A02082B9826D53630022A8
:1016B000B4F8A810D4F8A40000F03AFB0122B4F862
:1016C000B010D4F8AC0000F033FB10BD042A04D0F5
:1016D000082A05D0826D1364E9E7826D9363E6E71B
:1016E000826DD363E3E7002B15DBB0F8A030002B4D
:1016F00036D1836D00225A630022B4F8A810D4F8C2
:10170000A40000F015FB0022B4F8B010D4F8AC002F
:1017100000F00EFBD9E7B0F8A0208AB9826D5B42D9
:1017200053630122B4F8A810D4F8A40000F000FB21
:101730000022B4F8B010D4F8AC0000F0F9FAC4E715
:10174000042A05D0082A07D0826D5B421364E8E7BB
:10175000826D5B429363E4E7826D5B42D363E0E7B3
:10176000042B05D0082B07D0836D00221A64C3E731
:10177000836D00229A63BFE7836D0022DA63BBE7C3
:1017800084B038B5044605A880E80E000023238005
:101790006380A380E380642323810A236381482537
:1017A0002A46014604F11000FEF722FD2A4617A939
:1017B00004F15800FEF71CFDBDF8A430A4F8A030D9
:1017C0002A9BC4F8A430BDF8AC30A4F8A8302C9BF8
:1017D000C4F8AC30BDF8B430A4F8B030BDE838403F
:1017E00004B07047F8B507460E4600240FE0B42554
:1017F00005FB0475042105F1100001F08FFAB5F81E
:10180000A01005F1580001F00FFA0134E4B2B4421F
:10181000EDD3F8BDF8B507460E46002512E0B42416
:1018200004FB05742046FFF705FF2046FFF708FF7D
:101830004FF4E1512046FFF723FF2046FFF72CFF2E
:101840000135EDB2B542EAD3F8BD000008B5074A4C
:10185000136843F010031360032000F01BF80F20FF
:10186000FFF70EFCFFF7E2FB002008BD002002405E
:10187000034A1168034B1B780B441360704700BF89
:10188000200D002004000020014B1868704700BFA5
:10189000200D0020074AD36823F4E0631B041B0CCF
:1018A000000200F4E060034343F0BF6343F40033FD
:1018B000D360704700ED00E000B5194BDB68C3F35F
:1018C0000223C3F1070CBCF1040F28BF4FF0040C36
:1018D00003F1040EBEF1060F18D9033B4FF0FF3E93
:1018E0000EFA0CFC21EA0C0199400EFA03FE22EAE2
:1018F0000E020A4300280BDB1201D2B200F1604055
:1019000000F5614080F800235DF804FB0023E5E763
:1019100000F00F001201D2B2024B1A54F4E700BFDC
:1019200000ED00E014ED00E0002807DB00F01F02EE
:10193000400901239340024A42F82030704700BF1B
:1019400000E100E0034690F82120022A06D004229C
:101950008263002280F820200120704701680A6815
:1019600022F00E020A6001680A6822F001020A6091
:10197000026CC06B012101FA02F2426083F821106F
:10198000002083F82000704708B590F82130022B22
:1019900003D004238363012008BD0268136823F089
:1019A0000E0313600268136823F0010313600368D9
:1019B0004B4A93424ED9783A934224D01432934200
:1019C00030D0143293422FD0143293422FD014329D
:1019D00093422FD0143293422FD0143293422FD0FF
:1019E00002F5627293422ED0143293422DD01432FB
:1019F00093422CD01432934202D04FF4803203E051
:101A00004FF4805200E00122364B5A60012380F8E7
:101A10002130002380F82030436B002B5ED09847A4
:101A20000020B9E71022EFE74FF48072ECE74FF4A3
:101A30008052E9E74FF48032E6E74FF48012E3E7A3
:101A40004FF08072E0E70122DEE71022DCE74FF47E
:101A50008072D9E7244A934224D01432934225D08D
:101A60001432934224D01432934224D0143293423D
:101A700024D01432934224D01432934224D002F55D
:101A80006272934223D01432934222D01432934292
:101A900021D01432934202D04FF4803203E04FF44D
:101AA000805200E00122114B5A60AFE71022FAE7A2
:101AB0004FF48072F7E74FF48052F4E74FF480322E
:101AC000F1E74FF48012EEE74FF08072EBE701226E
:101AD000E9E71022E7E74FF48072E4E700205BE7D4
:101AE0008000024000040240080002400000024062
:101AF00070B582B00024A446B0E0874DAB4210D050
:101B000007D9864DAB420CD005F58035AB4208D0E5
:101B100013E0A5F58015AB4203D005F57025AB4267
:101B200007D18B68002B62D0012B5BD04261082467
:101B300003E0A5F58015AB42F3D0BEF1FF0F58D8F6
:101B40000646BEF1FF0F56D84FEA8C0233680F25C8
:101B5000954023EA050304FA02F2134333604B680D
:101B600013F0805F78D06E4B9A6942F001029A615F
:101B70009B6903F001030193019B4FEA9C02951CB2
:101B8000684B53F825600CF00305AD000F23AB4004
:101B900026EA0306644B984233D003F580639842EB
:101BA00000F0988003F58063984200F0958003F57B
:101BB0008063984200F0928003F58063984200F0C1
:101BC0008F8003F58063984219D006231AE0CC6811
:101BD000B3E7CC680434B0E7CC680834ADE7CC6830
:101BE0000C34AAE702610824A7E70024A5E704242F
:101BF000A3E7061DA5E7ACF108029200A6E70523BE
:101C000000E00023AB4033430232464D45F822301A
:101C10004B6813F4803F65D0444A136843EA0E03CF
:101C200013604B6813F4003F62D0404A536843EAA4
:101C30000E0353604B6813F4801F5FD03B4A9368D8
:101C400043EA0E0393604B6813F4001F5CD0374ADD
:101C5000D36843EA0E03D3600CF1010C0B6833FA2E
:101C60000CF257D0012202FA0CF203EA020E32EA19
:101C70000303F1D14B68122B3FF63FAF122B3FF617
:101C80005CAF01A555F823F0231B0008CF1B00080B
:101C9000D91B0008EB1B00083B1B00083B1B00087E
:101CA0003B1B00083B1B00083B1B00083B1B0008BC
:101CB0003B1B00083B1B00083B1B00083B1B0008AC
:101CC0003B1B00083B1B00083B1B0008D31B000804
:101CD000DF1B0008012395E7022393E7032391E725
:101CE00004238FE7114A136823EA0E03136098E771
:101CF0000E4A536823EA0E0353609BE70B4A93682E
:101D000023EA0E0393609EE7084AD36823EA0E0392
:101D1000D360A1E702B070BD0000221000003110B6
:101D20000010024000000140000801400004014092
:101D30000AB101617047090401617047002800F091
:101D4000CC8070B5044690F83D30002B77D024232A
:101D500084F83D302268136823F001031360226881
:101D6000136843F4004313602268136823F40043AC
:101D7000136000F0D3FB62685A4B9A4264D85A4B06
:101D800098428CBF00230123002B40F0A8805749C4
:101D9000A1FB00318B0C25686A6822F03F0242EA01
:101DA00091426A6021680A6A22F03F0266684D4DDE
:101DB000AE424FD8013313430B622168CA6922F443
:101DC0004F4222F0FF026568464B9D424CD8431EAD
:101DD0006D00B3FBF5F3013340F6FC70034278D09D
:101DE000C3F30B031A43CA6121680B6823F0C003D5
:101DF000E269206A024313430B6021688B6823F475
:101E0000034323F0FF032269E068024313438B601E
:101E10002168CB6823F0FF036269A0690243134382
:101E2000CB602268136843F0010313600020206434
:101E3000202384F83D30206384F83E0070BD80F894
:101E40003C30FFF75FF882E7294B98428CBF0023B4
:101E5000012399E74FF4967505FB03F3254DA5FB88
:101E600003539B090133A6E7A668BEB9431E05EBE1
:101E7000450CB3FBFCF30133C3F30B03B3FA83F359
:101E80005B0943BBC6B9431E05EB4505B3FBF5F340
:101E90000133C3F30B0343F40043A3E7431E05EBF5
:101EA000850C0CEB8C0CB3FBFCF30133C3F30B037D
:101EB000B3FA83F35B09E4E7431E05EB850505EB05
:101EC0008505B3FBF5F30133C3F30B0343F4404340
:101ED00088E7042386E7012384E701207047012077
:101EE000ACE700BFA08601007F841E0083DE1B4399
:101EF000FF083D00D34D621082B0084B1B68084AB2
:101F0000A2FB03235B0A00FB03F3019300BF019BC9
:101F10005A1E0192002BF9D102B070470000002038
:101F2000D34D6210002800F0F18170B582B00446F4
:101F3000036813F0010F2CD0994B5B6803F00C037E
:101F4000042B1DD0964B5B6803F00C03082B12D0BA
:101F50006368B3F5803F41D0002B55D103F1804336
:101F600003F504331A6822F480321A601A6822F4E6
:101F700080221A6037E08A4B5B6813F4803FE7D019
:101F8000874B1B6813F4003F03D06368002B00F0FD
:101F9000BF81236813F0020F75D0814B5B6813F08B
:101FA0000C0F5FD07E4B5B6803F00C03082B54D002
:101FB0002369002B00F08A807A4B01221A60FFF718
:101FC00063FC0546764B1B6813F0020F75D1FFF7D3
:101FD0005BFC401B0228F5D903209EE1704A136880
:101FE00043F480331360636843B3FFF74DFC054649
:101FF0006B4B1B6813F4003FCBD1FFF745FC401B34
:102000006428F5D9032088E1B3F5A02F09D0644BEB
:102010001A6822F480321A601A6822F480221A6048
:10202000E1E703F18043A3F53C331A6842F48022D0
:102030001A601A6842F480321A60D4E7FFF724FC71
:102040000546574B1B6813F4003FA2D0FFF71CFC5A
:10205000401B6428F5D903205FE1514B5B6813F402
:10206000803FA5D14E4B1B6813F0020F03D02369AC
:10207000012B40F04F814A4A136823F0F80361694D
:1020800043EAC1031360236813F0080F33D0A36938
:10209000002B5CD0434B0122C3F88024FFF7F4FBF4
:1020A00005463F4B5B6A13F0020F21D1FFF7ECFBB3
:1020B000401B0228F5D903202FE1394A136823F089
:1020C000F803616943EAC1031360DCE7354B002282
:1020D0001A60FFF7D9FB0546314B1B6813F0020F5E
:1020E000D1D0FFF7D1FB401B0228F5D9032014E122
:1020F0000120FFF701FF236813F0040F00F0968022
:10210000274BDB6913F0805F34D1254BDA6942F04D
:102110008052DA61DB6903F080530193019B012552
:10212000214B1B6813F4807F26D0E368012B3DD040
:10213000002B53D103F1804303F504331A6A22F0D4
:1021400001021A621A6A22F004021A6233E0154B85
:102150000022C3F88024FFF797FB0546104B5B6A0B
:1021600013F0020FC7D0FFF78FFB401B0228F5D9F1
:102170000320D2E00025D3E70B4A136843F48073B1
:102180001360FFF781FB0646074B1B6813F4807F43
:10219000CBD1FFF779FB801B6428F5D90320BCE085
:1021A0000010024000004242007000405F4A136A83
:1021B00043F001031362E36833B3FFF765FB0646A0
:1021C0005A4B1B6A13F0020F2FD1FFF75DFB801BE8
:1021D00041F288339842F3D903209EE0052B09D0C1
:1021E000524B1A6A22F001021A621A6A22F00402A1
:1021F0001A62E0E74D4B1A6A42F004021A621A6A48
:1022000042F001021A62D6E7FFF73EFB0646474B53
:102210001B6A13F0020F08D0FFF736FB801B41F258
:1022200088339842F3D9032077E0E5B9E369002BBE
:1022300072D03E4A526802F00C02082A56D0022B95
:1022400017D03B4B00221A66FFF71EFB0446374BA4
:102250001B6813F0007F47D0FFF716FB001B022816
:10226000F5D9032059E0314AD36923F08053D36173
:10227000DCE72F4B00221A66FFF706FB05462B4BC7
:102280001B6813F0007F06D0FFF7FEFA401B022800
:10229000F5D9032041E0236AB3F5803F1AD02349E2
:1022A0004B6823F47413226A606A024313434B6041
:1022B0001F4B01221A66FFF7E7FA04461B4B1B6807
:1022C00013F0007F0ED1FFF7DFFA001B0228F5D9CB
:1022D000032022E0154A536823F40033A1680B431E
:1022E0005360DCE7002018E0002016E0012B16D038
:1022F0000E4B5B6803F48031226A914211D103F4E2
:102300007013626A93420ED1002006E001207047EC
:10231000012002E0012000E0002002B070BD012099
:10232000FBE70120F9E70120F7E700BF00100240BA
:102330000000424286B0174B0FCB0DF1180C0CE990
:102340000F0040F20123ADF80430134B5B6803F03B
:102350000C02082A02D0114806B07047C3F383422A
:1023600018326A4412F8100C13F4803F0DD00A4B57
:102370005B68C3F3404318336B4413F8143C074ABB
:1023800002FB00F0B0FBF3F0E6E7054B03FB00F0C7
:10239000E2E700BF04B300080010024000127A0018
:1023A00000093D00002800F0A08070B50D460446ED
:1023B000524B1B6803F007038B420BD24F4A136842
:1023C00023F007030B431360136803F007038B42EA
:1023D00040F08D80236813F0020F17D013F0040F24
:1023E00004D0474A536843F4E0635360236813F012
:1023F000080F04D0424A536843F460535360404A84
:10240000536823F0F003A1680B435360236813F073
:10241000010F31D06368012B20D0022B25D0384A20
:10242000126812F0020F64D035494A6822F00302A4
:1024300013434B60FFF728FA0646314B5B6803F005
:102440000C036268B3EB820F16D0FFF71DFA801BF6
:1024500041F288339842F0D9032045E0284A1268B7
:1024600012F4003FE0D101203EE0254A126812F04C
:10247000007FD9D1012037E0204B1B6803F0070310
:10248000AB420AD91D4A136823F007032B4313609C
:10249000136803F00703AB422DD1236813F0040F38
:1024A00006D0174A536823F4E063E1680B43536096
:1024B000236813F0080F07D0114A536823F46053C0
:1024C000216943EAC1035360FFF734FF0C4B5B689B
:1024D000C3F303130B4AD35CD8400B4B18600B4B70
:1024E0001868FEF7CDFD002070BD01207047012067
:1024F000FAE70120F8E70120F6E700BF00200240DC
:1025000000100240ECB2000800000020080000208B
:10251000014B1868704700BF0000002008B5FFF7A6
:10252000F7FF044B5B68C3F30223034AD35CD84034
:1025300008BD00BF00100240FCB2000808B5FFF75C
:10254000E7FF044B5B68C3F3C223034AD35CD84064
:1025500008BD00BF00100240FCB200080F2303605A
:102560000B4B5A6802F0030242605A6802F0F00214
:1025700082605A6802F4E062C2605B68DB0803F4C0
:10258000E0630361034B1B6803F007030B607047B4
:10259000001002400020024030B4036A23F001031F
:1025A0000362036A4268846924F0730C0C6844EA8D
:1025B0000C0423F0020C8B6843EA0C03114DA84273
:1025C00003D005F50065A84205D123F00803CD68C6
:1025D0002B4323F004030B4DA84203D005F50065FF
:1025E000A84207D122F440724D6945EA020C8A697B
:1025F00042EA0C02426084614A684263036230BC72
:10260000704700BF002C014030B4036A23F480738C
:102610000362036A4268C46924F0730C0C6844EADC
:102620000C0523F400738C6843EA0423114CA04288
:1026300003D004F50064A04206D123F40063CC6803
:1026400043EA042323F480630A4CA04203D004F538
:102650000064A04207D122F440524C6942EA0412BD
:102660008C6942EA04124260C5614A68C26303622F
:1026700030BC7047002C014030B4036A23F480530F
:102680000362036A4468C26922F4E6420D6842EAC2
:10269000052223F400538D6843EA0533094DA8420F
:1026A00003D005F50065A84204D124F480444D69A7
:1026B00044EA85144460C2614A680264036230BC23
:1026C000704700BF002C01407047000090F83D307B
:1026D000DBB2012B2FD1022380F83D300268D36892
:1026E00043F00103D3600368154A934218D002F502
:1026F0000062934214D0B3F1804F11D0A2F598320A
:1027000093420DD002F58062934209D002F58062B7
:10271000934205D01A6842F001021A600020704707
:102720009A6802F00702062A07D01A6842F00102EE
:102730001A6000207047012070470020704700BFDA
:10274000002C0140704770477047704710B5044631
:1027500003681A6912F0020F11D0DA6812F0020F42
:102760000DD06FF002021A610123037703689B69A1
:1027700013F0030F70D0FFF7E6FF002323772368E1
:102780001A6912F0040F12D0DA6812F0040F0ED09A
:102790006FF004021A610223237723689B6913F404
:1027A000407F5FD02046FFF7CEFF002323772368CA
:1027B0001A6912F0080F12D0DA6812F0080F0ED062
:1027C0006FF008021A61042323772368DB6913F092
:1027D000030F4ED02046FFF7B6FF00232377236870
:1027E0001A6912F0100F12D0DA6812F0100F0ED022
:1027F0006FF010021A61082323772368DB6913F452
:10280000407F3DD02046FFF79EFF002323772368BB
:102810001A6912F0010F03D0DA6812F0010F36D1F5
:1028200023681A6912F0800F03D0DA6812F0800F63
:1028300034D123681A6912F0400F03D0DA6812F01D
:10284000400F32D123681A6912F0200F03D0DA68E2
:1028500012F0200F30D110BDFFF774FF2046FFF7B4
:1028600073FF8AE72046FFF76DFF2046FFF76CFFF6
:102870009BE72046FFF766FF2046FFF765FFACE7C2
:102880002046FFF75FFF2046FFF75EFFBDE76FF0D2
:1028900001021A612046FEF771FBC1E76FF080026A
:1028A0001A61204600F0DFFAC3E76FF040021A61B8
:1028B0002046FFF74AFFC5E76FF020021A61204665
:1028C00000F0D0FAC7E700000368244A904212D013
:1028D00002F5006290420ED0B0F1804F0BD0A2F50D
:1028E0009832904207D002F58062904203D002F500
:1028F0008062904203D123F070034A681343174A61
:10290000904212D002F5006290420ED0B0F1804F9A
:102910000BD0A2F59832904207D002F58062904227
:1029200003D002F58062904203D123F44073CA6859
:10293000134323F080034A69134303608B68C36227
:102940000B688362054B984203D003F500639842FD
:1029500001D10B690363012343617047002C0140DF
:1029600040B310B5044690F83D30F3B1022384F82B
:102970003D30214651F8040BFFF7A6FF012384F8F0
:10298000463084F83E3084F83F3084F8403084F894
:10299000413084F8423084F8433084F8443084F87D
:1029A000453084F83D30002010BD80F83C30FFF702
:1029B0008BFEDBE70120704740B310B5044690F86A
:1029C0003D30F3B1022384F83D30214651F8040B29
:1029D000FFF77AFF012384F8463084F83E3084F80C
:1029E0003F3084F8403084F8413084F8423084F835
:1029F000433084F8443084F8453084F83D3000207A
:102A000010BD80F83C30FEF7ADFCDBE701207047DD
:102A1000002856D070B50D46044690F83D30002B86
:102A20004AD0022384F83D302268936823F480431F
:102A300023F007039360214651F8040BFFF744FF8E
:102A400021688B688A690E6A2868184322F44072EC
:102A500022F00302AB68D5F818C043EA0C231343F5
:102A600023F47C4323F0FC03EA68D5F81CC042EA57
:102A70000C221A432B6A1B03D5F810C043EA0C132F
:102A8000134326F022066A686D6942EA0512324352
:102A9000886021688B6123681A62012384F84630BC
:102AA00084F83E3084F83F3084F8423084F8433074
:102AB00084F83D30002070BD80F83C30FEF704FC07
:102AC000AFE701207047000030B4036A23F0100321
:102AD0000362036A4468826922F4E6420D6842EAAE
:102AE000052223F020038D6843EA0513114DA84207
:102AF00003D005F50065A84206D123F08003CD6818
:102B000043EA051323F040030A4DA84203D005F51C
:102B10000065A84207D124F440644D6944EA850465
:102B20008D6944EA8504446082614A688263036275
:102B300030BC7047002C014038B590F83C30012B78
:102B400060D004460D46012380F83C300C2A1AD888
:102B5000DFE802F0071919191D1919193119191986
:102B600044000068FFF718FD2268936943F00803EA
:102B700093612268936923F0040393612268936947
:102B800029690B439361002084F83C0038BD00683C
:102B9000FFF79AFF2268936943F400639361226808
:102BA000936923F48063936122689369296943EAF6
:102BB00001239361E7E70068FFF726FD2268D369E8
:102BC00043F00803D3612268D36923F00403D3617F
:102BD0002268D36929690B43D361D4E70068FFF702
:102BE0004BFD2268D36943F40063D3612268D36943
:102BF00023F48063D3612268D369296943EA0123FE
:102C0000D361C0E70220C1E701F01F014FF0010CC2
:102C10000CFA01FC036A23EA0C030362036A8A408C
:102C2000134303627047000010B5044608460029AC
:102C30003AD194F83E30DBB2013B18BF0123002BA0
:102C400066D1002849D1022384F83E300122014692
:102C50002068FFF7D9FF23682F4A934203D002F57B
:102C60000062934203D15A6C42F400425A642368D2
:102C7000294A934241D002F5006293423DD0B3F11C
:102C8000804F3AD0A2F59832934236D002F5806256
:102C9000934232D002F5806293422ED01A6842F0FD
:102CA00001021A60002032E0042908D008290DD062
:102CB00094F84130DBB2013B18BF0123BFE794F821
:102CC0003F30DBB2013B18BF0123B8E794F8403036
:102CD000DBB2013B18BF0123B1E7042805D0082867
:102CE00007D0022384F84130B0E7022384F83F3054
:102CF000ACE7022384F84030A8E79A6802F00702A4
:102D0000062A07D01A6842F001021A60002010BD9E
:102D10000120FCE70020FAE7002C014038B504460A
:102D200090F83E00C0B294F83F3094F84220D2B2FE
:102D300094F843C00D46B1B9012849D1012A48D1C0
:102D4000022384F83E3084F842307DB3042D39D01C
:102D5000012200212068FFF757FF0122042120688B
:102D6000FFF752FF27E0DBB25FFA8CFC042912D098
:102D7000012833D1012B2CD1012A31D1BCF1010F13
:102D800030D1022384F83E3084F83F3084F842305A
:102D900084F84330D9E7012B1CD1BCF1010F1BD1C2
:102DA000022384F83F3084F84330CEE7012200212B
:102DB0002068FFF729FF2268136843F001031360BE
:102DC000002006E0012204212068FFF71DFFF2E742
:102DD000012038BD0120FCE71846FAE70120F8E79A
:102DE0001846F6E71046F4E790F83C20012A34D064
:102DF00010B40346012280F83C20022280F83D20D6
:102E000002685068946820F0700C086840EA0C0072
:102E100050601A681248824212D000F50060824267
:102E20000ED0B2F1804F0BD0A0F59830824207D07F
:102E300000F58060824203D000F58060824204D1B8
:102E400024F08004496821439160012283F83D20E9
:102E5000002083F83C0010BC70470220704700BF80
:102E6000002C0140704770470268D36823F49073C8
:102E7000D3600268536923F001035361036B012B94
:102E800005D0202380F83E3000230363704702689A
:102E9000D36823F01003D360F3E790F83D30DBB242
:102EA000212B01D0022070478368B3F5805F17D0D3
:102EB000036A5A1C02621A7803685A60C38C9BB278
:102EC000013B9BB2C3844BB90268D36823F08003F3
:102ED000D3600268D36843F04003D360002070479A
:102EE0000369002BE4D1036A1B880268C3F308035B
:102EF0005360036A02330362E0E7000010B5044642
:102F00000268136923F44053C1680B43136183685B
:102F10000269134342691A430168CB6823F4B05332
:102F200023F00C031343CB600268536923F440730E
:102F300081690B4353610268134B9A4220D0FFF71B
:102F4000EDFA024602EB820202EB820263689B000A
:102F5000B2FBF3F20D48A0FB02314909642303FBE5
:102F600011231B013233A0FB03035B0903F0F002C2
:102F700002EB011203F00F03216813448B6010BDB4
:102F8000FFF7DCFA0246DDE7003801401F85EB5110
:102F90002DE9F84305460F4616469946DDF8208090
:102FA0002B681C6837EA04040CBF01240024B442D7
:102FB0001FD1B8F1FF3FF3D0B8F1000F05D0FEF7F5
:102FC00063FCA0EB09004045EAD92A68D36823F4E2
:102FD000D073D3602A68536923F00103536120231F
:102FE00085F83D3085F83E30002385F83C300320DD
:102FF00000E00020BDE8F88358B310B5044690F80F
:103000003D300BB3242384F83D302268D36823F489
:103010000053D3602046FFF771FF2268136923F441
:10302000904313612268536923F02A035361226895
:10303000D36843F40053D36000202064202384F835
:103040003D3084F83E3010BD80F83C30FEF72CFA5D
:10305000D8E7012070472DE9F04182B01E4690F874
:103060003D30DBB2202B54D104460D46904600295A
:1030700053D0002A53D090F83C30012B51D001237B
:1030800080F83C3000230364212380F83D30FEF7B4
:10309000FBFB0746A4F82480A4F82680A368B3F5B8
:1030A000805F05D04FF00008002384F83C3012E028
:1030B000236913B14FF00008F6E7A8460025F3E7AF
:1030C00038F8023B2268C3F308035360E28C92B2E3
:1030D000013A92B2E284E38C9BB273B100963B4614
:1030E000002280212046FFF753FFE0B9002DE7D0F2
:1030F00015F8012B23685A60E8E700963B4600224A
:1031000040212046FFF744FF78B9202384F83D3062
:1031100000E0022002B0BDE8F0810120FAE70120C2
:10312000F8E70220F6E70320F4E70320F2E7704710
:1031300008B50168CA6822F04002CA60202280F8FF
:103140003D20FFF7F4FF002008BD704708B5406A36
:103150000023C385C384FFF7F8FF08BD704790F8CC
:103160003E30DBB2222B60D18368B3F5805F46D05E
:10317000826AB3F5805F04D0002B4DD10369002B28
:103180004AD103685B681370836A01338362C38D1D
:103190009BB2013B9BB2C385002B48D100B583B0E5
:1031A0000268D36823F02003D3600268D36823F455
:1031B0008073D3600268536923F0010353612023B5
:1031C00080F83E30036B012B2CD10023036302688F
:1031D000D36823F01003D36003681A6812F0100F4D
:1031E00006D0002201921A6801925B680193019B4C
:1031F000818DFFF7B3FF002003B05DF804FB026987
:10320000002AB5D1826A03685B68C3F308031380A0
:10321000836A02338362BAE703685B6803F07F0363
:103220001370B1E7FEF7A0F9E5E702207047002030
:103230007047000030B583B0044602681368D06858
:10324000516913F00F0505D113F0200F02D010F0D3
:10325000200F19D12DB111F0010119D110F4907F77
:1032600016D1216B012975D013F0800F03D010F017
:10327000800F40F0D78013F0400F03D010F0400FC4
:1032800040F0D48003B030BD2046FFF768FFF9E777
:1032900013F0010F06D010F4807F03D0226C42F0AF
:1032A0000102226413F0040F04D019B1226C42F021
:1032B0000202226413F0020F04D019B1226C42F012
:1032C0000402226413F0080F07D010F0200F00D181
:1032D00019B1226C42F008022264226C002AD1D07B
:1032E00013F0200F02D010F0200F21D123685B696A
:1032F00003F04003226C12F0080F00D123B32046E4
:10330000FFF7B2FD23685A6912F0400F18D05A69CE
:1033100022F040025A61A36B73B1464A5A63A06B14
:10332000FEF732FB0028ADD0A06B436B9847A9E7AE
:103330002046FFF714FFD9E72046FFF706FFA1E775
:103340002046FFF702FF9DE72046FFF7FEFE002321
:10335000236497E713F0100F86D010F0100F83D07E
:10336000002301931368019353680193019B5369F0
:1033700013F0400F32D0A16B0B685B689BB2002B3F
:1033800080D0A08D98427FF67DAFE3858B69202B9E
:1033900008D1A18DE38D9BB2C91A89B22046FFF7EF
:1033A000DDFE6FE7D36823F48073D360226853692E
:1033B00023F0010353612268536923F040035361F2
:1033C000202384F83E30002323632268D36823F04F
:1033D0001003D360A06BFEF7B5FADAE7A38DE18D99
:1033E00089B25B1A99B2E38D9BB2002B3FF44AAFCE
:1033F00000293FF447AFD36823F49073D360226869
:10340000536923F001035361202384F83E300023E5
:1034100023632268D36823F01003D3602046FFF7AC
:103420009DFE2FE72046FFF738FD2BE72046FFF7EC
:103430007FFE27E74D310008034681628285C28501
:1034400000201864222283F83E2083F83C0019688B
:10345000CA6842F48072CA6019684A6942F001027F
:103460004A611A68D36843F02003D360704708B5F7
:1034700090F83E30DBB2202B0DD171B17AB190F8CB
:103480003C30012B0DD0012380F83C300023036336
:10349000FFF7D2FF00E0022008BD0120FCE7012079
:1034A000FAE70220F8E70000EFF3058393B9EFF3A2
:1034B000108393B90C4B1868022804D080B90A4BCA
:1034C00001221A607047EFF31183002BF6D06FF0E2
:1034D000050070476FF0050070476FF005007047FA
:1034E0004FF0FF30704700BF800F002008B5EFF3AA
:1034F0000583B3B9EFF31083B3B90E4B1B68022BEE
:1035000008D0012B13D10B4B02221A6001F0CEF828
:10351000002008BDEFF31182002AF2D06FF0050001
:10352000F7E76FF00500F4E76FF00500F1E74FF003
:10353000FF30EEE7800F0020F0B587B00024049440
:10354000EFF30584002C43D1EFF31083002B3FD120
:10355000334B1B68022B16D0002839D000238DF87E
:10356000173062B3156895B1936903B918235C1ECF
:10357000372C51D8546814F0010F4FD156694EB111
:103580004FEA960C08E0EFF311830BBBE4E70DF173
:103590001705E9E74FF0800C94682CB1D7685B2FD2
:1035A00002D9176907B1B6B914B14FF0FF340CE076
:1035B000D46894B914699CB14FF0FF3405E000243D
:1035C00018234FF0800C0DF11705012C0AD0ACB177
:1035D000049807B0F0BD0124F7E74FF0FF34F4E79B
:1035E0000024F2E7146992680292019400930B465A
:1035F0006246294600F0ECFF0490E9E704AA019234
:1036000000930B461FFA8CF2294601F01BF80128A3
:10361000DED000230493DBE70020DAE70020D8E7C0
:10362000800F002008B5EFF30583A3B9EFF31083F3
:10363000A3B90C4B1B68022B02D040B9002008BD77
:10364000EFF31183002BF8D06FF00500F7E701F0DE
:1036500091F90020F3E76FF00500F0E76FF0050047
:10366000EDE700BF800F0020034B0360034B0B60AE
:1036700080231360704700BF240F0020240D00201A
:10368000034B0360034B0B604FF480731360704770
:1036900084130020840F002000F1080343604FF0E2
:1036A000FF328260C3600361002303607047002320
:1036B0000361704743684B609A688A605160996003
:1036C0000861036801330360704730B40D68B5F1D9
:1036D000FF3F11D000F108031C465B681A68AA423C
:1036E000FAD963684B6099608C6061600861036817
:1036F0000133036030BC70470469F2E70369416835
:1037000082688A60416851605A68824206D000220D
:1037100002611A68013A1A601868704782685A6034
:10372000F5E7000082B0002301930D4B1B68B3F155
:10373000FF3F08D04FF0500383F31188BFF36F8F22
:10374000BFF34F8FFEE74FF0500383F31188BFF3B1
:103750006F8FBFF34F8F019B002BFCD002B07047DF
:103760000C00002006480068006880F3088862B6F4
:1037700061B6BFF34F8FBFF36F8F00DF00BF000054
:1037800008ED00E04FF0807340F8043C21F00101A7
:1037900040F8081C034B40F80C3C40F8202C403803
:1037A000704700BF2537000800000000000000003F
:1037B000074B19680868B0E8F00F80F30988BFF379
:1037C0006F8F4FF0000080F311884EF00D0E7047A0
:1037D000402000204FF0500383F31188BFF36F8F18
:1037E000BFF34F8F0B4A136801331360012B00D0D6
:1037F00070474FF0E023D3F8043D13F0FF0FF7D0EC
:103800004FF0500383F31188BFF36F8FBFF34F8FD7
:10381000FEE700BF0C000020094B1B6843B94FF0C6
:10382000500383F31188BFF36F8FBFF34F8FFEE711
:10383000013B034A13600BB983F31188704700BF43
:103840000C0000200000000000000000000000004C
:10385000EFF30980BFF36F8F0D4B1A6820E9F00F6B
:1038600010602DE908404FF0500080F3118801F0FE
:10387000A7F84FF0000080F31188BDE808401968F0
:103880000868B0E8F00F80F30988BFF36F8F7047C6
:103890004020002008B54FF0500383F31188BFF398
:1038A0006F8FBFF34F8F00F05DFF28B14FF0E02323
:1038B0004FF08052C3F8042D002383F3118808BD14
:1038C0004FF0E022002313619361054B1B6805490B
:1038D000A1FB03139B09013B53610723136170474D
:1038E00000000020D34D621010B582B02A4B1A7828
:1038F000D2B20192FF221A701B78DBB28DF803302E
:103900009DF8033003F05003244A1370244B072220
:103910001A6009E0224A1368013B13609DF80330E6
:103920005B00DBB28DF803309DF8033013F0800F9D
:10393000F0D11B4B1B68032B08D04FF0500383F3CF
:103940001188BFF36F8FBFF34F8FFEE71B02144A3E
:10395000136003F4E0631360019BDBB20E4A137043
:103960004FF0E023D3F8202D42F47002C3F8202D4D
:10397000D3F8202D42F07042C3F8202DFFF7A0FFAE
:103980000024084B1C60FFF7EDFE01F019F8FFF76B
:10399000C9FE204602B010BD00E400E0E0130020A4
:1039A000E41300200C000020EFF305830F2B0FD948
:1039B000114A9B5CDBB2114A12789A4208D94FF047
:1039C000500383F31188BFF36F8FBFF34F8FFEE770
:1039D0004FF0E023D3F80C3D03F4E063084A12688B
:1039E000934208D94FF0500383F31188BFF36F8FD0
:1039F000BFF34F8FFEE77047F0E300E0E0130020D5
:103A0000E4130020124A12F0070F1ED0D11D21F03E
:103A10000701C1F5406313440A460E4802600021C5
:103A200041601344083B23F007030B4803605960CF
:103A30001960991A51601360084B1960084B19609E
:103A4000084B4FF000421A6070474FF44063E4E7C0
:103A5000EC130020F81F0020E8130020F41F0020C2
:103A6000F01F0020EC1F0020154B1A461B688342F4
:103A7000FBD3516802EB010C844509D0416800EB8F
:103A8000010C634509D00360904218D01060704764
:103A90004068014451601046F0E710B4094C2468B6
:103AA000A3420AD05B681944416013681B68036035
:103AB000904200D0106010BC70470460F8E7704777
:103AC000F81F0020E813002070B5054600F03CFE0A
:103AD000344B1B68A3B1344B1B681D424AD135B12E
:103AE000083515F0070F02D025F007050835002D21
:103AF00042D02E4B1B68AB424DD32D4A146804E0D4
:103B0000FFF780FFE7E722461C466368AB4202D21C
:103B10002368002BF7D1234B1B68A3423DD01668C6
:103B200008362368136063685B1B102B10D960197B
:103B300010F0070F08D04FF0500383F31188BFF344
:103B40006F8FBFF34F8FFEE743606560FFF78CFF19
:103B5000626816490B689B1A0B60164909688B420C
:103B600001D214490B60104B1B68134363600023A0
:103B7000236002E0002600E0002600F07FFE16F041
:103B8000070F0CD04FF0500383F31188BFF36F8FF2
:103B9000BFF34F8FFEE70026EFE70026EDE7304644
:103BA00070BD00BFE8130020EC1F0020F01F0020B4
:103BB000F81F0020F41F002080B338B50446A0F1A0
:103BC000080550F8043C164A1268134208D14FF019
:103BD000500383F31188BFF36F8FBFF34F8FFEE75E
:103BE00050F8081C41B14FF0500383F31188BFF324
:103BF0006F8FBFF34F8FFEE723EA020340F8043CC8
:103C000000F0A2FD54F8041C064A13680B4413602C
:103C10002846FFF729FF00F031FE38BD704700BF8E
:103C2000EC1F0020F01F002010B50446FFF7D2FD66
:103C3000A26BE36B9A4204D00024FFF7EDFD20460F
:103C400010BD0124F9E710B50446FFF7C3FDA36BCF
:103C500023B90124FFF7E0FD204610BD0024F9E759
:103C600070B504461546866B026C5AB903681BB1E1
:103C700000200136A66370BD406800F0C9FF002334
:103C80006360F6E76DB98068FCF7B2FA226CA3684E
:103C90001344A3606268934219D32368A360284643
:103CA000E7E7C068FCF7A4FA226C5142E3689B1A6C
:103CB000E3602268934202D263680B44E360022D02
:103CC00001D00020D5E726B1013E0020D1E72846EB
:103CD000CFE70020CDE708B50346026C62B1084685
:103CE000D9681144D960D3F804C0614501D319687B
:103CF000D960D968FCF77CFA08BD38B50546FFF7EE
:103D000069FD95F8454064B201E0013C64B2002CC5
:103D10000ADD6B6A43B105F1240000F0CFFE0028F4
:103D2000F3D000F05FFFF0E7FF2385F84530FFF7A1
:103D300073FDFFF74FFD95F8444064B201E0013C8C
:103D400064B2002C0ADD2B6943B105F1100000F0CC
:103D5000B5FE0028F3D000F045FFF0E7FF2385F81B
:103D60004430FFF759FD38BD38B5E0B10D46044683
:103D7000FFF730FD2368E26B216C01FB02306060CD
:103D80000020A063A360013A02FB0133E360FF233C
:103D900084F8443084F84530FDB9236963B9FFF7EE
:103DA0003BFD012038BD4FF0500383F31188BFF372
:103DB0006F8FBFF34F8FFEE704F1100000F07EFE1F
:103DC0000028ECD04FF0E0234FF08052C3F8042DD0
:103DD000BFF34F8FBFF36F8FE1E704F11000FFF7E0
:103DE0005BFC04F12400FFF757FCD8E738B51D460B
:103DF000049C0B4649B92460E063236401212046FA
:103E0000FFF7B2FF84F84C5038BD2260F4E740B9A8
:103E10004FF0500383F31188BFF36F8FBFF34F8FC1
:103E2000FEE710B584B01C46844653B192B189B9FF
:103E30004FF0500383F31188BFF36F8FBFF34F8FA1
:103E4000FEE74FF0500383F31188BFF36F8FBFF38A
:103E50004F8FFEE76AB150230393039B502B13D07F
:103E60004FF0500383F31188BFF36F8FBFF34F8F71
:103E7000FEE70029EFD04FF0500383F31188BFF322
:103E80006F8FBFF34F8FFEE7012384F84630009415
:103E90009DF818306046FFF7A9FF204604B010BD1A
:103EA000F0B585B0019288B10F461D460446B1B108
:103EB000022D20D1E36B012B1DD04FF0500383F373
:103EC0001188BFF36F8FBFF34F8FFEE74FF05003A2
:103ED00083F31188BFF36F8FBFF34F8FFEE7036C3F
:103EE000002BE5D04FF0500383F31188BFF36F8FA1
:103EF000BFF34F8FFEE700F07BFE064658B9019BEB
:103F0000002B48D04FF0500383F31188BFF36F8F1D
:103F1000BFF34F8FFEE700263DE02A463946204694
:103F2000FFF79EFE636A7BB948B14FF0E0234FF084
:103F30008052C3F8042DBFF34F8FBFF36F8FFFF78D
:103F40006BFC012005B0F0BD04F1240000F0B6FDCB
:103F50000028F4D04FF0E0234FF08052C3F8042D36
:103F6000BFF34F8FBFF36F8FE9E7FFF755FC0020DA
:103F7000E8E702A800F0E8FD012619E0002384F834
:103F8000443021E0002384F8453023E02046FFF749
:103F9000B4FE00F073FCFFF71DFCA26BE36B9A42CA
:103FA000BBD3022DB9D0019B002BDED0002EE0D078
:103FB000FFF732FC00F0C8FBFFF70CFC94F844203C
:103FC00052B2B2F1FF3FD9D094F8452052B2B2F1CB
:103FD000FF3FD7D0FFF720FC01A902A800F0C0FDE9
:103FE000D8B92046FFF720FE0028CFD0019904F170
:103FF000100000F02FFD2046FFF77FFE00F03EFC92
:104000000028C8D14FF0E0234FF08052C3F8042DB0
:10401000BFF34F8FBFF36F8FBDE72046FFF76DFEF5
:1040200000F02CFC00208DE72DE9F84390B10F46FD
:1040300016461C460546B1B1022C20D1EB6B012B74
:104040001DD04FF0500383F31188BFF36F8FBFF380
:104050004F8FFEE74FF0500383F31188BFF36F8F4C
:10406000BFF34F8FFEE7036C002BE5D04FF05003FA
:1040700083F31188BFF36F8FBFF34F8FFEE7FFF716
:1040800093FCEFF311884FF0500383F31188BFF3D3
:104090006F8FBFF34F8FAA6BEB6B9A4206D3022C44
:1040A00004D0002088F31188BDE8F88395F8459086
:1040B0004FFA89F9224639462846FFF7D1FDB9F172
:1040C000FF3F06D009F101035BB285F845300120BE
:1040D000E8E76B6A0BB90120E4E705F1240000F082
:1040E000EDFC18B126B101203060DBE70120D9E7F3
:1040F0000120D7E7F0B585B0019290B10F46044694
:10410000C1B100F075FD064600BB019B002B5ED0DF
:104110004FF0500383F31188BFF36F8FBFF34F8FBE
:10412000FEE74FF0500383F31188BFF36F8FBFF3A7
:104130004F8FFEE7036C002BE3D04FF0500383F367
:104140001188BFF36F8FBFF34F8FFEE700263EE06D
:1041500039462046FFF7BFFD013DA563236923B91A
:10416000FFF75AFB012005B0F0BD04F1100000F08C
:10417000A5FC0028F4D04FF0E0234FF08052C3F8A4
:10418000042DBFF34F8FBFF36F8FE9E7FFF744FBB9
:104190000020E8E702A800F0D7FC012621E0002378
:1041A00084F8443029E0002384F845302BE0204691
:1041B000FFF7A3FD00F062FB09E02046FFF79DFD3D
:1041C00000F05CFB2046FFF73EFD00283FD1FFF7E3
:1041D00001FBA56B002DBBD1019B002BD6D0002E7F
:1041E000D8D0FFF719FB00F0AFFAFFF7F3FA94F815
:1041F00044305BB2B3F1FF3FD1D094F845305BB2AD
:10420000B3F1FF3FCFD0FFF707FB01A902A800F0F1
:10421000A7FC0028D1D12046FFF715FD0028C6D005
:10422000019904F1240000F015FC2046FFF765FD1C
:1042300000F024FB0028CAD14FF0E0234FF0805259
:10424000C3F8042DBFF34F8FBFF36F8FBFE700207C
:1042500089E700000023072B0CD8074A52F83320C7
:104260000AB10133F7E7044A42F8331002EBC30204
:1042700050607047704700BF0020002070B50446B2
:104280000D461646FFF7A6FA94F844305BB2B3F138
:10429000FF3F0DD094F845305BB2B3F1FF3F0BD038
:1042A000FFF7BAFAA36B5BB12046FFF726FD70BD9E
:1042B000002384F84430EDE7002384F84530EFE72D
:1042C0003246294604F1240000F0DCFBECE7000054
:1042D000084B1B681B6823B9074B4FF0FF321A606D
:1042E0007047044B1B68DB68DB685A68024B1A6036
:1042F000704700BF44200020F02400202DE9F04743
:1043000080460D4617469946089EDDF824A00A9C73
:104310009200A521206B00F02BFF236B07F1804258
:10432000013A03EB820727F007074FF0000CBCF1BE
:104330000F0F09D815F80C3004EB0C0282F834305A
:1043400013B10CF1010CF2E7002384F84330372E4F
:1043500000D93726E662E66400252565201DFFF7B3
:10436000A6F904F11800FFF7A2F92461C6F1380696
:10437000A6616462656584F858504A4641463846ED
:10438000FFF700FA2060BAF1000F01D0CAF8004030
:10439000BDE8F08738B5002407E004EB8402930001
:1043A0000E481844FFF778F90134372CF5D90C4D35
:1043B0002846FFF771F90B4C2046FFF76DF90A48C4
:1043C000FFF76AF90948FFF767F90948FFF764F949
:1043D000084B1D60084B1C6038BD00BF4C200020FE
:1043E000C4240020D8240020F82400202425002004
:1043F00010250020442000204820002010B504464D
:10440000FFF7E8F9224A136801331360214B1B6858
:104410005BB1214B1B686BB91E4B1B68DA6AE36A00
:104420009A4207D81B4B1C6004E01A4B1C601368AF
:10443000012B29D0194A1368013313606364E06AC1
:10444000174B1B68984201D9154B186000EB800090
:10445000211D144B03EB8000FFF72CF9FFF7DCF96B
:104460000D4B1B687BB10B4B1B68DA6AE36A9A42FF
:1044700009D24FF0E0234FF08052C3F8042DBFF370
:104480004F8FBFF36F8F10BDFFF784FFD2E700BFE0
:10449000AC240020402000200C250020BC2400205B
:1044A000C02400204C20002010B5044690F859305C
:1044B00063B1012B11D0022B0ED04FF0500383F3C8
:1044C0001188BFF36F8FBFF34F8FFEE7006BFFF7CD
:1044D00073FB2046FFF770FB10BDFFF76DFBFBE79A
:1044E0000F4B1B68D3B110B5FFF774F90D4BDB68A8
:1044F000DC68201DFFF702F90B4A1368013B1360CB
:10450000074A1368013B1360FFF786F92046FFF75F
:10451000CBFF034B1B68002BE6D110BD704700BFDB
:10452000B024002024250020AC24002008B5FFF78B
:10453000D7FF074B1B68012BF9D94FF0E0234FF051
:104540008052C3F8042DBFF34F8FBFF36F8FEEE798
:104550004C20002070B504460D46174B1E68174BC3
:1045600018680430FFF7CAF8B4F1FF3F0DD03444A7
:10457000124B1B685C60A64210D9114B18680F4B98
:1045800019680431FFF7A1F870BD002DEFD00B4B77
:10459000196804310B48FFF78DF8F5E70A4B1868E6
:1045A000064B19680431FFF790F8084B1B68A342CB
:1045B000EAD9064B1C60E7E73825002040200020A0
:1045C000482000201025002044200020F024002056
:1045D00030B587B00B9C7CB10C9DB5B15C250495C2
:1045E000049D5C2D1AD04FF0500383F31188BFF364
:1045F0006F8FBFF34F8FFEE74FF0500383F31188A7
:10460000BFF36F8FBFF34F8FFEE74FF0500383F37D
:104610001188BFF36F8FBFF34F8FFEE70C9D2C63A4
:10462000022485F8594000240394029505AC0194B6
:104630000A9C0094FFF762FE0C98FFF7DFFE0598D6
:1046400007B030BD2DE9F04385B0074688461446D3
:104650001E469000FFF738FA00B381465C20FFF752
:1046600033FA0546B0B1C0F83090E5B1002385F8C3
:104670005930039302950D9B01930C9B0093334695
:10468000224641463846FFF739FE2846FFF7B6FE78
:10469000012005E04846FFF78FFAE6E74FF0FF30CC
:1046A00005B0BDE8F0834FF0FF30F9E710B588B0F2
:1046B00000240594069407AA06A905A8FEF7D4FFCE
:1046C000059B0293069B019300942346079A184981
:1046D0001848FFF77DFF184B186040B100F04CFB05
:1046E000012806D0B0F1FF3F18D008B010BD00205F
:1046F000F6E74FF0500383F31188BFF36F8FBFF3DA
:104700004F8F0E4B4FF0FF321A600D4B01221A6093
:104710000C4B00221A60FFF7E7F8E6E74FF0500372
:1047200083F31188BFF36F8FBFF34F8FFEE700BF96
:1047300018B300082D450008EC240020F0240020C8
:104740000C25002038250020024A1368013313602D
:10475000704700BFB8240020014B1868704700BFA5
:1047600038250020F8B53A4B1B68002B64D1394B33
:104770001D6801351D60C5B9374B1B681B6843B107
:104780004FF0500383F31188BFF36F8FBFF34F8F48
:10479000FEE7314A1168314B186810601960304AE1
:1047A000136801331360FFF793FD2E4B1B68AB4278
:1047B00038D900272C4B1B68DB6A03EB83039A0074
:1047C0002A4B9B58012B3CD901273AE00127224B69
:1047D0001B681B6843B3204B1B68DB68DC6863689D
:1047E0009D4226D3261D3046FEF788FFA36A1BB1E3
:1047F00004F11800FEF782FFE36A1D4A1268934233
:1048000001D91B4A136003EB83039A003146174812
:104810001044FEF74FFFE26A134B1B68DB6A9A42B3
:10482000D4D2D4E70027D2E70E4B4FF0FF321A6004
:10483000C0E70C4A1360BDE70E4A136801331360EA
:1048400000270D4B1B6803B101273846F8BD00BF98
:10485000B8240020382500204420002048200020D3
:10486000F4240020F0240020402000204C200020D0
:10487000C0240020B42400203C25002038B5354B4E
:104880001B6843B94FF0500383F31188BFF36F8F58
:10489000BFF34F8FFEE7FEF79DFF2E4B1A68013ADC
:1048A0001A601B68002B4FD12B4B1B680BB90024DF
:1048B0004BE00024294B1B681BB3284BDB68DC68EA
:1048C00004F11800FEF71AFF251D2846FEF716FF13
:1048D000E06A234B1B68984201D9214B186000EB1A
:1048E000800029461F4B03EB8000FEF7E3FEE26ADF
:1048F0001D4B1B68DB6A9A42DCD31C4B01221A60F9
:10490000D8E70CB1FFF7E4FC194B1C6884B9174BCE
:104910001C68D4B14FF0E0234FF08052C3F8042D4F
:10492000BFF34F8FBFF36F8F01240EE0013C07D020
:10493000FFF718FF0028F9D00C4B01221A60F5E7A9
:104940000B4B00221A60E2E70024FEF765FF2046C9
:1049500038BD00BFB8240020AC240020F82400207B
:10496000C02400204C200020402000203C250020B6
:10497000B424002010B5A8B10446104B1B6843B105
:104980004FF0500383F31188BFF36F8FBFF34F8F46
:10499000FEE7FFF7D9FE00212046FFF7DBFDFFF71A
:1049A0006DFF48B94FF0E0234FF08052C3F8042D5B
:1049B000BFF34F8FBFF36F8F10BD00BFB82400202F
:1049C0001F4B1B681BB11F4B01221A6070471D4B08
:1049D00000221A601C4B1B6803EB83018A001B49F1
:1049E0008A585AB90BB1013BF6E74FF0500383F3F5
:1049F0001188BFF36F8FBFF34F8FFEE703EB830088
:104A000082000A4450684068506003EB830C4FEA10
:104A10008C020832114488420BD003EB83029100D0
:104A20000A4A0A445268D168094A1160064A13606A
:104A30007047406862469100044A0A445060ECE7BF
:104A4000B82400203C250020C02400204C20002059
:104A50004020002058B110B50C46094A11681831A1
:104A6000FEF733FE01212046FFF774FD10BD4FF025
:104A7000500383F31188BFF36F8FBFF34F8FFEE7AF
:104A80004020002038B570B10D4614460A4A11681E
:104A90001831FEF70FFE0CB14FF0FF3521462846C6
:104AA000FFF758FD38BD4FF0500383F31188BFF373
:104AB0006F8FBFF34F8FFEE74020002038B5C368EB
:104AC000DC6824B304F118052846FEF717FE184BDE
:104AD0001B682BBB251D2846FEF710FEE06A154B10
:104AE0001B68984201D9134B186000EB80002946DF
:104AF000114B03EB8000FEF7DDFDE26A0F4B1B68F4
:104B0000DB6A9A4211D901200D4B186038BD4FF075
:104B1000500383F31188BFF36F8FBFF34F8FFEE70E
:104B200029460848FEF7C6FDE7E70020EEE700BF8C
:104B3000B8240020C02400204C2000204020002069
:104B40003C250020F8240020034B1B680360034B26
:104B50001B684360704700BFF42400203825002004
:104B6000D8B170B50C46054601B3FEF733FE1B4BBA
:104B700019686B68C81A2268B2F1FF3F27D0184E37
:104B80003668D5F800C0B44501D08B4224D98242A2
:104B900015D80023236001241AE04FF0500383F35B
:104BA0001188BFF36F8FBFF34F8FFEE74FF05003B5
:104BB00083F31188BFF36F8FBFF34F8FFEE75B1A4C
:104BC000134423602846FFF7BFFF002400E00024C1
:104BD000FEF722FE204670BD0124F9E738250020AB
:104BE000F4240020014B01221A6070473C2500206C
:104BF000054B1B6833B1054B1B680BB10020704798
:104C000002207047012070470C250020B8240020A6
:104C100000283BD038B504461E4B1B68834208D0A1
:104C20004FF0500383F31188BFF36F8FBFF34F8FA3
:104C3000FEE7036D43B94FF0500383F31188BFF3D0
:104C40006F8FBFF34F8FFEE7013B0365C16AC26CF4
:104C500091421DD00BB1002038BD051D2846FEF73E
:104C60004DFDE06CE062C0F13803A3610A4B1B68A4
:104C7000984201D9084B186000EB80002946074B89
:104C800003EB8000FEF716FD0120E5E700207047EA
:104C90000020E1E740200020C02400204C2000201C
:104CA000064B1A681368B3FA83F35B09036013B900
:104CB000D368186870470020704700BF4025002067
:104CC00008B54160006191420CD8D21A83699A42BA
:104CD00001D3012008BD011D094B1868FEF7F5FC42
:104CE0000020F7E79A4201D2994206D2011D054BF6
:104CF0001868FEF7EAFC0020ECE70120EAE700BFB5
:104D0000442500204025002030B583B0FEF762FD29
:104D1000114B1B681BB1FEF77FFD03B030BD0F4D7B
:104D20002846FEF7B9FC0E4C2046FEF7B5FC0D4BAD
:104D30001D600D4B1C60002300930C4B0C4A10218E
:104D40000A20FFF764F8044B18600028E3D00949F3
:104D5000FFF780FADFE700BF64260020E825002087
:104D6000FC2500204025002044250020142600209A
:104D70004825002020B3000810B588B0FFF7C4FF15
:104D8000124B1B68CBB100240594069407AA06A910
:104D900005A8FEF775FC059B0293069B0193022371
:104DA00000932346079A0A490A48FFF711FC0A4B69
:104DB000186010B1012008B010BD4FF0500383F30C
:104DC0001188BFF36F8FBFF34F8FFEE7642600207B
:104DD00028B30008B950000868260020B8B19C46E6
:104DE00003461848006858B300B585B00091019299
:104DF000029305291CDCFFF7FBFE022810D00023DC
:104E00001A4669460F480068FFF74AF815E04FF068
:104E1000500383F31188BFF36F8FBFF34F8FFEE70B
:104E20000023069A694607480068FFF739F804E04E
:104E3000002362466946FFF7F7F805B05DF804FB0A
:104E4000002070476426002070B582B01A4B1B68A2
:104E50001A6852B3DB681E68DC68251D2846FEF719
:104E60004DFC636A20469847E369012BEED1A369A4
:104E700033449E4207D26360246129460E4B186872
:104E8000FEF723FCE2E7002100910B463246204664
:104E9000FFF7A4FF0028D9D14FF0500383F3118806
:104EA000BFF36F8FBFF34F8FFEE7044A10680249CC
:104EB0000860136002B070BD40250020442500202A
:104EC00038B50546FFF748FC0446074B1B6883428C
:104ED00005D800232B60044B1C60204638BDFFF72B
:104EE000B3FF01232B60F6E71026002070B582B0D7
:104EF00006460D4614490968C968CC68201DFEF7AE
:104F0000FDFBE169012904D0636A2046984702B09D
:104F100070BDA16933462A4631442046FFF7D0FED2
:104F20000028F1D0002100910B4632462046FFF7C1
:104F300055FF0028E8D14FF0500383F31188BFF3E9
:104F40006F8FBFF34F8FFEE74025002070B582B012
:104F500006460C46FFF7F8FB01A8FFF7B1FF019BDF
:104F60002BBB05460CB9B0421AD22CB1124B1B68B0
:104F70001C68B4FA84F464092246711B0F4B18684C
:104F8000FFF77CF9FFF77AFC98B94FF0E0234FF078
:104F90008052C3F8042DBFF34F8FBFF36F8F08E02B
:104FA000FFF76CFC29463046FFF7A0FF01E0FFF752
:104FB00065FC02B070BD00BF4425002064260020BF
:104FC00010B588B002E0049B002B0FDA002204A980
:104FD000384B1868FFF78EF8002869D0049B002B27
:104FE000F1DA07990698059B9847ECE7069C6369F8
:104FF00013B1201DFEF782FB03A8FFF761FF049B9E
:10500000092BE3D801A252F823F000BF3550000865
:105010003550000835500008CD4F00087B5000087F
:10502000A15000083550000835500008CD4F000849
:105030007B500008059BA169024619442046FFF7F2
:105040003FFE0028C2D0636A20469847E369012BDF
:10505000BCD1A269002100910B460598024420466C
:10506000FFF7BCFE0028B1D14FF0500383F3118845
:10507000BFF36F8FBFF34F8FFEE70599A16131B189
:105080000346024601442046FFF71AFE9EE74FF012
:10509000500383F31188BFF36F8FBFF34F8FFEE789
:1050A00094F82C30002B91D12046FEF785FD8DE73A
:1050B00008B010BD6426002000B583B001A8FFF73A
:1050C000EFFD0199FFF742FFFFF77AFFF6E70000D7
:1050D0000C480D490D4A002302E0D458C450043353
:1050E000C4188C42F9D30A4A0A4C002301E0136029
:1050F0000432A242FBD3FCF77BF800F015F8FBF773
:105100007DFF704700000020BC09002020B7000888
:10511000BC090020A4260020FEE70000014B18680F
:10512000704700BF1000002070B50D4E0D4D761B6E
:10513000B61006D0002455F8043B01349847A64227
:10514000F9D1094E094D06F089F8761BB61006D044
:10515000002455F8043B01349847A642F9D170BDAC
:1051600018B7000818B700081CB7000818B70008DF
:10517000830730B548D0541E002A3FD00346CAB238
:1051800001E0013C3AD303F8012B9D07F9D1032C30
:105190002DD9CDB245EA05250F2C45EA054536D96E
:1051A000A4F1100222F00F0C03F1200EE6444FEAA6
:1051B000121C03F1100242E9045542E90255103273
:1051C0007245F8D10CF1010214F00C0F03EB02123E
:1051D00004F00F0C13D0ACF1040323F003030433E9
:1051E000134442F8045B9342FBD10CF003042CB14E
:1051F000C9B21C4403F8011B9C42FBD130BD64467C
:105200001346002CF4D1F9E703461446BFE71A46CB
:10521000A446E0E70FB400B5074A83B004AB1068BA
:1052200053F8042B8168019300F008F803B05DF88F
:1052300004EB04B0704700BF100000202DE9F04FD0
:10524000D9B090461C460891824603F051F9036894
:105250000D941846179304F00BF903460822002119
:1052600028A81693FFF784FFBAF1000F04D0DAF8EC
:105270003830002B00F0F8810899B1F90C20900427
:1052800093B207D442F400528A8193B24A6E22F458
:1052900000524A661A0740F1CA80089A1269002A29
:1052A00000F0C58003F01A030A2B00F0CE80002323
:1052B0002FAA19469146CDE92D332C921293002244
:1052C00000234446CDE91423CDE91911CDE91B1182
:1052D00018910991A0467F4B28AED3F8E45003F013
:1052E0000BF94246034624A950460096A8470028D9
:1052F00000F0C180C0F2B780249B252B01D08044F0
:10530000E9E7B8EB0407064640F0B98000224FF009
:10531000FF332B2620279346079308F1010898F8BE
:1053200000308DF887200B9208F10108A3F12002CC
:105330005A2A00F2D180DFE812F0DB02CF00CF0062
:10534000CD02CF00CF00CF00AC02CF00CF006A006B
:105350001D02CF001802EA02CF00E5025B005B00ED
:105360005B005B005B005B005B005B005B00CF00F1
:10537000CF00CF00CF00CF00CF00CF005101CF0032
:105380009B010403510151015101CF00CF00CF0017
:10539000CF00A702CF00CF002202CF00CF00CF0066
:1053A000BE01CF009502CF00CF00E006CF00CF00B6
:1053B000CF00CF00CF00CF00CF00CF005101CF00F2
:1053C0009B01EF015101510151015202EF017500A2
:1053D000CF007702CF005F02DD0684027500CF00A8
:1053E000BE017200B706CF00CF00BB06CF0072002F
:1053F0000021A3F1300218F8013B01EB810102EB1F
:105400004101A3F13002092AF5D90B918EE70D9BDA
:1054100053F8042B002A0B920D93C0F2A38198F845
:10542000003081E798F800304BF0200B7CE75046C5
:10543000089901F069FD002841F0F483089B9B89DD
:1054400003F01A030A2B7FF432AF089BB3F90E3036
:10545000002BFFF62CAF234642465046089901F038
:10546000EBFC099027E00822002128A8FFF780FE26
:10547000012080442FE7B8EB0407064611D02E9B8D
:10548000C9E900473B442E932D9B0133072B2D93F5
:1054900015DC09F10809099B3B440993002E7FF4B0
:1054A00035AF2E9B002B41F0BC81089BB3F90C302B
:1054B000590601F1B783099859B0BDE8F08F5046FD
:1054C00008992CAA04F072F80028EED10DF1BC095D
:1054D000E1E700BF400400200F93002BE1D0002241
:1054E0008DF8FC3001233FAC06938DF887200A939A
:1054F0000C9207921192139210921BF0020302D0A9
:105500000699023106911BF084010E9105D10B9989
:1055100006980F1A002F00F39C832E9E82B1012261
:10552000C9F804202D9A013601320DF18701072AAE
:105530002E962D92C9F8001000F3D88309F10809BE
:105540007BB10223C9F804302D9B0236013322AA15
:10555000072B2E962D93C9F8002000F3DB8309F169
:1055600008090E9B802B00F09C82079B0A9A9F1AC9
:10557000002F00F3D7821BF4807F40F039820A9B12
:10558000C9F800401E44C9F804302D9B2E96013303
:10559000072B2D9300F3528309F108091BF0040F28
:1055A00005D00B9B069A9C1A002C00F3BF83099B25
:1055B0000B9A06998A42ACBF9B185B180993002E80
:1055C00040F0E58200232D930C9B1BB150460C99B3
:1055D00002F06AFE44460DF1BC097BE60F930D9B79
:1055E000073323F00701F1E80223CDE91423DDE9B5
:1055F000142323F00045164610460D914FF0FF325C
:105600002946B74BFBF7C0FA002840F0F18430463A
:1056100029464FF0FF32B24BFBF798FA002840F0D2
:10562000E784DDE9140100220023FBF785FA002856
:1056300041F000809DF8872000210320A94CAA4B4F
:105640002BF0800B0C9106900F9D0791472DC8BF42
:105650001C460A90119113911091002A3FF44DAF0E
:10566000069B0133069348E7504602F0C3FD03E66C
:10567000432B0F9303D01BF0100F00F042850D9EBB
:10568000082200212AA83FACFFF772FD2AAB214671
:10569000504656F8042B01F005FC034601330A90EE
:1056A00001F0F8820A9B0D9623EAE3730693002229
:1056B0008DF887201CE70F9300230D9F8DF887300E
:1056C00057F8044B002C00F041850F9B532B00F042
:1056D00046861BF01003109340F04186079B5A1C2E
:1056E00001F08C801A462046109903F03DFA0C9088
:1056F000002801F0508373220C9B10991B1B0A9306
:1057000023EAE3730F920D979DF887200791069384
:10571000119113910C91A0E71BF0200F0F9300F053
:1057200017810D9B073323F007031846596850F87B
:10573000083B0A460D900029C0F21C8407990131EC
:1057400000F0C58253EA02012BF0800540F0C082D0
:10575000079A002A40F0C182AB46002358AC079359
:105760000A931CE10B9B5B420B9398F800304BF0C3
:10577000040BD9E598F800308DF88760D4E50F93D5
:105780004BF0100B1BF0200200F0E7830D9B07335A
:1057900023F0070319465A6851F8083B0D91002081
:1057A0002BF480650021079C8DF88710671C00F0A2
:1057B000DF8053EA020125F0800B40F0D880002CF6
:1057C00040F013860028C8D115F001030A9300F0B9
:1057D000DF8330230DF25F148DF85F31DFE098F83E
:1057E0000030682B03BF98F801304BF4007B08F1C0
:1057F00001084BF0400B97E51BF0200F40F0E883C9
:105800001BF0100F40F0F6851BF0400F40F02D8785
:105810001BF4007F00F0EE850D9B099953F8042BD3
:10582000444611700D9355E598F800306C2B03BF7A
:1058300098F801304BF0200B08F101084BF0100BE9
:1058400072E547F6300378210D9AADF888300F9154
:1058500052F8043B25490D92022000224BF002052C
:1058600018919FE70F934BF0100515F0200200F000
:1058700066830D9B0120073323F0070319465A68FE
:1058800051F8083B0D918DE798F800304BF0080B6C
:105890004AE5504602F02CFE436818461B9303F07D
:1058A000E7FD034650461D461C9302F021FE836827
:1058B0001993002D3FF4B3AD199B002B3FF4AFAD0E
:1058C000199B1B78002B3FF4AAAD98F800304BF4DD
:1058D000806B29E598F800304BF0010B24E500BF00
:1058E000FFFFEF7F30B3000834B3000840B3000877
:1058F0009DF88730002B7FF492AD98F800308DF83A
:10590000877011E598F800304BF0800B0CE54146AC
:1059100011F8013B2A2B01F05B82A3F13002092A26
:10592000884698BF002101F2EC8018F8013B01EB9A
:10593000810102EB4101A3F13002092AF5D9079157
:10594000F4E44BF0100B1BF0200F0F937FF4E9AE43
:105950001BF0100F0D9A40F02B831BF0400F00F04E
:10596000238332F9043B0D92DA171146E3E65D46D4
:10597000012800F0AD81022858AC1ED1189803F020
:105980000F01415C1B0943EA0273120904F8011D6F
:1059900053EA0201F3D1AB4658AB1B1B0A93079A9B
:1059A0000A9900238A42B8BF0A460C9306921193C3
:1059B0009DF88720139310934FE603F00701DB084F
:1059C00043EA4273D208303153EA0206204604F813
:1059D000011DF2D1EE07DED53029DCD030230238AC
:1059E00004F8013C58AB1B1AAB4604460A93D6E7B1
:1059F0000F9B652B40F3DC80DDE9140100220023BE
:105A0000FBF790F8002800F0C9810123C9F80430A1
:105A10002D9BBD4A01330136072B2E962D93C9F8D5
:105A2000002000F38F8409F10809239B129A934206
:105A300080F2A982169B179A1E44C9E900232D9B68
:105A40002E960133072B2D9300F3748309F1080977
:105A5000129B5C1E002C7FF7A1AD102C41F3AE8190
:105A6000324610272D9BA94D089E05E009F1080933
:105A7000103C102C40F3AC8401331032072BC9E9E1
:105A80000057CDE92D32F1DD314650462CAA03F006
:105A90008DFD002840F08380DDE92D320DF1BC0939
:105AA000E6E70B9B069A9F1A002F7FF75EAD102F3B
:105AB0002D9B964D23DD32462646089C04E0103F80
:105AC000102F09F1080918DD102101331032072BBE
:105AD000CDE92D32C9F80050C9F80410EFDD214698
